:020000040800F2
:100000002838002001010008090100080B01000840
:100010000D0100080F010008110100080000000098
:1000200000000000000000000000000013010008B4
:100030001501000800000000170100081901000860
:100040001B0100081B0100081B0100081B01000820
:100050001B0100081B0100081B0100081B01000810
:100060001B0100081B0100081B0100081B01000800
:10007000110600081B0100081B0100081B010008F5
:100080001B0100081B0100081B0100081B010008E0
:100090001B0100081B0100081B0100081B010008D0
:1000A0001B0100081B0100081B0100081B010008C0
:1000B0001B010008891000081B0100081B01000833
:1000C0001B0100081B0100081B0100081B010008A0
:1000D0001B0100081B0100081B0100081B01000890
:1000E0001B0100081B0100081B010008DFF80CD0F1
:1000F00000F02AF800480047E116000828380020E0
:100100000648804706480047FEE7FEE7FEE7FEE7B1
:10011000FEE7FEE7FEE7FEE7FEE7FEE7650F000805
:10012000ED0000080649074A0868504343F23902C7
:10013000104408604008704701490860704700009B
:10014000200000206D4EC641064C074D06E0E068D9
:1001500040F0010394E8070098471034AC42F6D30E
:10016000FFF7C8FFCC1C0008EC1C000810B51448B1
:100170000078012801D1134908701148007802283D
:1001800008D11149087000201049087001200D495C
:10019000087010BD0A480078032805D10A49087084
:1001A000012008490870F4E70648007830B10020C3
:1001B0000449087001F0A4F901F0B0F900BFE8E7C4
:1001C0000C0000200E0000200D0000200F00002079
:1001D00010B52E480078012804D12D4908702D490A
:1001E000087010BD29480078022808D128490870F5
:1001F000002029490870012026490870F1E72348AA
:100200000078032810D125480078401C2349087045
:100210000878C11700EB91718910A0EB81011F4A8A
:10022000117001201B4908701A48007830B1002075
:100230001849087001F064F901F070F91848007865
:1002400008B30020164908701448007818B900F067
:1002500029F801F063F911480078012803D100F072
:10026000E5F801F05BF90D480078022803D100F0B1
:1002700067F901F053F909480078032803D100F029
:1002800097F901F04BF900BFABE700000C0000202C
:100290000D0000200E0000200F00002010000020A4
:1002A0001100002010B506205D4908805D480078E7
:1002B00018B95D48007801F023F95A480078012800
:1002C00005D159490978C1F1FF0001F019F95548E4
:1002D0000078022804D154490978080201F010F985
:1002E00050480078032806D14F490978C1F1FF0131
:1002F000080201F005F94B480078042804D14A4966
:100300000978080401F0FCF846480078052806D171
:1003100045490978C1F1FF01080401F0F1F84148AD
:100320000078062805D14049097841EA012001F00A
:10033000E7F83C480078072807D13B490978C1F124
:10034000FF0141EA012001F0DBF836480078082877
:1003500005D13549097841EA014001F0D1F8314829
:100360000078092807D130490978C1F1FF0141EA35
:10037000014001F0C5F82B4800780A2808D12A4925
:1003800009780902284A127841EA024001F0B8F8D7
:10039000244800780B280CD123490978C1F1FF01CA
:1003A0000902214A1278C2F1FF0241EA024001F03B
:1003B000A7F81C4800780C2809D11B49097841EAA4
:1003C0000121194A127841EA024001F099F81548D2
:1003D00000780D280DD114490978C1F1FF0141EAD7
:1003E0000121114A1278C2F1FF0241EA024001F0F4
:1003F00087F80D480078401C0B49087008460078C3
:1004000068B908480078401C06490870084600781A
:100410000E2190FBF1F201FB12000249087010BDA1
:100420001200002018000020190000202DE9F041E2
:10043000FFF778FE0A2190FBF1F201FB12000A306F
:100440003B4908804FF0FF080AE0A8F10100394954
:1004500051F8200041F82800A8F1010000F0FF0841
:10046000B8F1000FF1DC3448007878BBFFF75AFE92
:10047000072190FBF1F201FB1200C4B214B9FF2076
:100480002C490860012C03D14FF47F4029490860B2
:10049000022C03D14FF47F0026490860032C03D1BE
:1004A0004FF6FF7023490860042C03D14FF0FF1072
:1004B00020490860052C02D120481E490860062CFE
:1004C00026D16FF07F401B49086021E0FFE71A4802
:1004D0000078102819DA17484068C0F30745154816
:1004E0008088C0F3072613480779142D00D9143DDE
:1004F000142E00D9143E142F00D9143F280440EACA
:10050000062038430B49086002E0002009490860D2
:1005100009480078401C08490870084600783221D4
:1005200090FBF1F201FB120003490870BDE8F08175
:1005300012000020240000201A00002000FFFF000D
:1005400070B5142017490880FF2407E0601E164983
:1005500051F8200041F82400601EC4B2002CF5DCE4
:100560001248007858B9FFF7DDFD0546C01705EBC6
:1005700010200016A5EB00600B49086003E00A4854
:1005800040680949086009480078401C074908701C
:10059000084600780A2190FBF1F201FB12000349A2
:1005A000087070BD12000020240000201B000020F5
:1005B00070B54FF47A7014490880144800680A2115
:1005C000B0FBF1F201FB1204104800686421B0FB9B
:1005D000F1F201FB12000A21B0FBF1F50B480068B3
:1005E0006421B0FBF1F6E0B201F064F8E8B201F08A
:1005F00097F801F04BF8F0B201F032F803480068C8
:10060000401C0249086070BD120000201400002048
:1006100010B5202000F022F928B103480068804777
:10062000202000F05BF810BD0000002010B58CB059
:1006300004460121084600F0CFFA1A4800F068F895
:100640001948019002941020039000200490059016
:1006500080200690400007908000089000200990BC
:100660004FF480500A9000200B9001A90D4800F033
:1006700014F90C208DF8000001208DF801008DF890
:1006800002008DF80300684600F06EFA0122022194
:10069000044800F0F9F80121024800F02DF80CB0F0
:1006A00010BD00001C0002403400004001490860F9
:1006B000704700000000002010B5044600210648E5
:1006C00000F01AF82146044800F005F9012102481B
:1006D00000F012F810BD00001C00024000F0805134
:1006E00011B10349086001E0024948607047000009
:1006F000040402400000024021B1026842F00102FD
:10070000026004E002684FF6FE731A400260704710
:1007100001684FF6FE7211400160002101604160E6
:100720008160C1604B49884208D14A49083949680B
:1007300041F00F01474A083A51608AE045491431B7
:10074000884208D143490839496841F0F001414ADB
:10075000083A51607DE03F492831884208D13D493F
:100760000839496841F470613A4A083A516070E0CA
:1007700038493C31884208D136490839496841F442
:100780007041344A083A516063E03249503188423E
:1007900008D130490839496841F470212D4A083A96
:1007A000516056E02B496431884208D12949083903
:1007B000496841F47001274A083A516049E02549E7
:1007C0007831884208D123490839496841F070617D
:1007D000204A083A51603CE01F49884206D1011F77
:1007E000096841F00F01021F116032E01A4914310B
:1007F000884208D11849091F096841F0F001164ADA
:10080000121F116025E014492831884208D112498D
:10081000091F096841F470610F4A121F116018E046
:100820000D493C31884208D10B49091F096841F440
:100830007041094A121F11600BE00749503188428C
:1008400007D10549091F096841F47021024A121FA6
:100850001160704708000240080402400146002071
:10086000002201F0805313B1054B1A6801E0054BDB
:100870001A6802EA01030BB1012000E00020704772
:1008800000040240000002401AB103680B430360F9
:1008900002E003688B430360704710B500220268D2
:1008A00047F6F0739A430C6A8B6823430C69234321
:1008B0004C6923438C692343CC6923434C6A23430B
:1008C0008C6A23431A430260CB6843600B688360E1
:1008D0004B68C36010BD416070472DE9F04102468E
:1008E00000250026002000230024002791F803C0E3
:1008F0000CF00F0591F803C00CF0100CBCF1000FC8
:1009000003D091F802C04CEA050591F800C0BCF193
:10091000000F31D0146800202BE04FF0010C0CFACE
:1009200000F3B1F800C00CEA03069E4220D1830018
:100930004FF00F0C0CFA03F7BC4305FA03FC4CEA2A
:10094000040491F803C0BCF1280F06D14FF0010C4C
:100950000CFA00FCC2F814C00AE091F803C0BCF124
:10096000480F05D14FF0010C0CFA00FCC2F810C082
:10097000401C0828D1D31460B1F800C0BCF1FF0FAF
:1009800034DD546800202EE000F1080C4FF001081F
:1009900008FA0CF3B1F800C00CEA03069E4221D11C
:1009A00083004FF00F0C0CFA03F7BC4305FA03FC6D
:1009B0004CEA040491F803C0BCF1280F05D100F102
:1009C000080C08FA0CF8C2F8148091F803C0BCF1C6
:1009D000480F07D100F1080C4FF0010808FA0CF895
:1009E000C2F81080401C0828CED35460BDE8F081C6
:1009F0000246002093680B400BB1012000E000206C
:100A0000704770B504460D4629462046FFF7F0FFB3
:100A100070BD38B505460C46ADF8004048208DF84D
:100A2000030003208DF8020069462846FFF755FFB2
:100A300038BD000010B500F09DF900F013F800F08B
:100A400051FD034800F068FB00F030FB10BD0000D2
:100A50001D0B0008024908780021014A11707047F7
:100A60000900002010B502210548FFF7D2FF202120
:100A70000348FFF7CEFF02210248FFF7CAFF10BD6F
:100A800000080140000C014010B51F4800781F49C4
:100A9000087000201C49087002211D48FFF7B1FFB3
:100AA00010B901201849087020211948FFF7A9FF43
:100AB00010B902201449087002211648FFF7A1FF5F
:100AC00010B903201049087010480078012805D19A
:100AD0000D48007810B901200F4908700B480078C4
:100AE000022805D10848007810B902200A49087088
:100AF00006480078032805D10348007810B9032080
:100B00000549087010BD00000B0000200A000020FD
:100B100000080140000C01400900002010B50F48FA
:100B20000088401C0D49088008460088142803DB13
:100B300000200880FFF7A8FF08484088401C0749AC
:100B400048800846408806490988884205DB00201D
:100B50000249488001200349087010BD1C00002094
:100B6000120000201100002070B5002100230F2288
:100B7000C47804B3154C246804F4E064C4F5E0645C
:100B8000210AC1F10403CA40447804FA03F18478CD
:100B90001440214309010E4C0678A155047804F055
:100BA0001F050124AC4005786D11AD0005F1E0256D
:100BB000C5F8004109E0047804F01F050124AC40A9
:100BC000044D0678761145F8264070BD0CED00E026
:100BD00000E400E080E100E029B1064A52690243E6
:100BE000044B5A6104E0034A52698243014B5A6143
:100BF000704700000010024029B1064AD269024342
:100C0000044BDA6104E0034AD2698243014BDA61A2
:100C1000704700000010024029B1064A12690243E1
:100C2000044B1A6104E0034A12698243014B1A61C2
:100C3000704700000010024029B1064A9269024341
:100C4000044B9A6104E0034A92698243014B9A6122
:100C5000704700000010024029B1064AD2680243E2
:100C6000044BDA6004E0034AD2688243014BDA6045
:100C700070470000001002400F48006840F001007B
:100C80000D490860084640680C4908400A49486018
:100C9000084600680A490840074908600846006895
:100CA00020F4802008600846406820F4FE00486078
:100CB0004FF41F0088607047001002400000FFF8EA
:100CC000FFFFF6FE10B501460022002300204A1166
:100CD000012A02D1094C236806E0022A02D1074CFE
:100CE000236A01E0054C636A01F01F02012494406D
:100CF0001C400CB1012000E0002010BD001002409B
:100D00000248406800F00C007047000000100240EC
:100D100001460020034A506820F0F000084350606C
:100D200070470000001002401149096821F4803129
:100D30000F4A11601146096821F480211160B0F555
:100D4000803F03D0B0F5802F0ED106E00849096836
:100D500041F48031064A116007E00549096841F411
:100D6000A021034A116000E000BF00BF70470000EF
:100D70000010024010B5FFF77FFF4FF48030FFF7FF
:100D8000D3FF00F05FF80446012C1ED14FF4E011B0
:100D9000000400F03DF80020FFF7BAFFA00200F0C9
:100DA00019F8002000F022F8012000F02BF800BF15
:100DB0003920FFF787FF0028FAD0022000F036F82C
:100DC00000BFFFF79DFF0828FBD101217C20FFF722
:100DD00033FF10BD01460020034A506820F4E06054
:100DE0000843506070470000001002400146002098
:100DF000034A506820F4605040EAC10050607047D8
:100E0000001002400149086670470000000042429D
:100E100002460020044B586820F47C1042EA01038B
:100E20001843014B586070470010024001460020F3
:100E3000034A506820F003000843506070470000E8
:100E40000010024038B5002000900024002500BFAB
:100E50003120FFF737FF05460098401C00900098AE
:100E6000B0F5A06F01D0002DF2D03120FFF72AFF9E
:100E700008B1012400E00024204638BD10B500F080
:100E800001F810BD0CB500200190009033480068B7
:100E900040F480303149086000BF3048006800F4F9
:100EA000003000900198401C0190009818B90198FA
:100EB000B0F5A06FF1D12948006800F4003010B1FE
:100EC0000120009001E0002000900098012843D10B
:100ED0002348006840F01000214908600846006877
:100EE00020F0030008600846006840F00200086037
:100EF0001A484068194948600846406848600846F2
:100F0000406840F4806048600846406820F47C10E7
:100F100048600846406840F4E810486008460068A9
:100F200040F08070086000BF0C48006800F000705E
:100F30000028F9D00948406820F0030007494860BC
:100F40000846406840F00200486000BF034840681F
:100F500000F00C000828F9D10CBD00000010024080
:100F60000020024010B51348006840F0010011490C
:100F7000086008464068104908400E494860084625
:100F800000680E4908400B4908600846006820F4D4
:100F9000802008600846406820F4FE0048604FF456
:100FA0001F008860FFF76AFF4FF000600449086087
:100FB00010BD0000001002400000FFF8FFFFF6FE29
:100FC00008ED00E010B5044621464FF0804000F0E7
:100FD000ACF810BD00B589B001210846FFF70CFE42
:100FE00001210420FFF728FE18208DF8230001209E
:100FF000ADF8200003208DF8220008A91D48FFF756
:101000006CFC4FF0804000F0B9F85920ADF81800A2
:101010000020ADF81400ADF81A00ADF8160005A9CF
:101020004FF0804000F0FEF96020ADF80400012090
:10103000ADF806000020ADF80A00ADF80C0001A9DB
:101040004FF0804000F0A0F90121880700F079F806
:1010500000220D21880700F08CF80122110288057A
:1010600000F07EF800214FF0804000F05EF809B0FB
:1010700000BD00000008014010B5044621464FF0B5
:10108000804000F0CDF910BD10B50121054800F0F9
:1010900069F930B10448006880470121014800F037
:1010A00041F810BD00040040040000201FB50121DC
:1010B0000220FFF7A1FD174800F060F840F2E7308A
:1010C000ADF808004720ADF804000020ADF80A0094
:1010D000ADF8060001A90F4800F0A4F91D208DF815
:1010E000000000208DF801008DF8020001208DF82D
:1010F00003006846FFF738FD0121064800F012F8AA
:1011000001221146034800F036F90121014800F0A0
:101110000CF81FBD00040040014908607047000042
:1011200004000020CA430282704721B1028842F0C5
:101130000102028004E002884FF6FE731A4002802A
:10114000704731B1B0F8442042F40042A0F8442086
:1011500005E0B0F84420C2F30E02A0F84420704726
:101160001AB183890B43838102E083898B43838196
:10117000704741EA0203A0F84830704710B50446B2
:101180006848844208D10121C014FFF765FD0021A1
:10119000E014FFF761FDC4E0B4F1804F08D10121F4
:1011A0000846FFF739FD00210120FFF735FDB8E0C3
:1011B0005D48844208D101210220FFF72DFD002166
:1011C0000220FFF729FDACE05848844208D10121F4
:1011D0000420FFF721FD00210420FFF71DFDA0E002
:1011E0005348844208D101210820FFF715FD002152
:1011F0000820FFF711FD94E04E48844208D10121F8
:101200001020FFF709FD00211020FFF705FD88E001
:101210004948844208D101212020FFF7FDFC00212C
:101220002020FFF7F9FC7CE04448844208D10121EA
:101230004014FFF711FD00216014FFF70DFD70E071
:101240003F48844209D10121C804FFF705FD002170
:101250004FF40020FFF700FD63E03A48844209D1D3
:1012600001210805FFF7F8FC00214FF48010FFF77B
:10127000F3FC56E03448844209D101214805FFF7C8
:10128000EBFC00214FF40010FFF7E6FC49E02F488B
:10129000844208D101214020FFF7BEFC00214020FC
:1012A000FFF7BAFC3DE02A48844208D101218020A2
:1012B000FFF7B2FC00218020FFF7AEFC31E02548AB
:1012C000844208D101218015FFF7A6FC0021A0155A
:1012D000FFF7A2FC25E02048844209D1012108043F
:1012E000FFF7BAFC00214FF48030FFF7B5FC18E09F
:1012F0001A48844209D101214804FFF7ADFC0021BE
:101300004FF40030FFF7A8FC0BE01548844208D1E9
:1013100001218804FFF7A0FC00214FF48020FFF793
:101320009BFC10BD002C0140000400400008004060
:10133000000C004000100040001400400034014048
:10134000004C014000500140005401400018004092
:10135000001C0040002000400040014000440140CB
:101360000048014002460020138A0B400BB10120C7
:1013700000E0002070471AB183890B43838102E0AB
:1013800083898B438381704770B50024002200233A
:10139000058C4FF6FE7635400584028C8388048BDD
:1013A0004FF68F752C40B51E2C400D882C43751EB2
:1013B0002A400D892A434D882A43144DA8420BD058
:1013C000134DA84208D0134DA84205D0124DA84293
:1013D00002D0124DA84213D14FF6F7752A404D891D
:1013E0002A434FF6FB752A408D882A434FF6FF6546
:1013F0002B404FF6FF552B408D892B43CD892B4336
:1014000083800483CD888586028470BD002C0140D2
:1014100000340140004001400044014000480140C8
:1014200081867047002202881D4B98420ED01D4BCA
:1014300098420BD0B0F1804F08D01B4B984205D09A
:101440001A4B984202D01A4B984204D14FF68F7330
:101450001A404B881A43174B984207D0164B9842B4
:1014600004D04FF6FF431A40CB881A4302808B8882
:1014700083850B8803850A4B98420BD0094B984211
:1014800008D00E4B984205D00D4B984202D00D4B20
:10149000984201D10B7A03860123838270470000B2
:1014A000002C0140003401400004004000080040CE
:1014B000000C0040001000400014004000400140BB
:1014C000004401400048014010B50020FFF7D4FD62
:1014D0000020FFF777FD01200149087010BD0000D2
:1014E0000800002010B50448FFF7E0F80348FFF7B4
:1014F0009DF8FFF76FFD10BDC914000824040020FB
:101500000146002004E0044A42F82010421C90B238
:10151000FF28F8DD704700002400002070B500248B
:1015200022E000251CE0194850F824004FF4000187
:101530002941084048B13C2104EB440005EBC000C0
:10154000401C134A22F8101008E01E2104EB44004E
:1015500005EBC000401C0E4A22F81010681C85B232
:10156000182DE0DB601C84B2FF2CDADD41F60100AF
:10157000FFF7A2F80120FFF725FD00BF054800781E
:101580000028FBD000200349087070BD2400002013
:10159000240400200800002010B52348007801280A
:1015A00004D1224908702249087010BD1E480078F5
:1015B000022810D11F480078401C1E4908700846B8
:1015C0000078032190FBF1F201FB12001949087029
:1015D00001201749087014480078032805D11349E1
:1015E0000870012012490870DFE711480078C8B17F
:1015F00000200F4908700F48007810B90E48FFF717
:101600007FFF0C480078012802D10C48FFF778FFD3
:1016100008480078022803D16FF07F40FFF770FF81
:10162000FFF77CFF00BFC0E70C0000200D0000208A
:101630000E0000200F000020010101003F3F3F008D
:1016400002E008C8121F08C1002AFAD1704770478B
:10165000002001E001C1121F002AFBD170470000E9
:1016600010B5014600200AE0064A02EBC11252F80A
:101670002030054C00F1580244F82230401C21284B
:10168000F2DB10BD4C17000824000020002000BF32
:1016900008E0064951F82020054B00F1480143F8C5
:1016A0002120401C1128F4DB704700004C1C00086E
:1016B0002400002010B5014600200AE0064A02EB93
:1016C000C11252F82030054C00F1080244F82230D3
:1016D000401C2128F2DB10BD4C170008240000201C
:1016E000FFF7A8F916E0FFF7B5F90B4908700B48AA
:1016F0000078012804D0022805D0032809D105E08C
:10170000FEF734FD05E0FFF747FF02E0FEF760FD5E
:1017100000BF00BFE7E700000C0000200D00002024
:1017200010B5014600200AE0064A02EBC11252F849
:101730002030054C00F1280244F82230401C2128BA
:10174000F2DB10BD4C170008240000200000000050
:10175000228B2200228B2200228B2200228B22004D
:10176000228B2200228B22000000000000000000DB
:10177000228B22000000000000000000000000009A
:1017800000000000228B220000000000000000008A
:10179000228B22000000000000000000000000007A
:1017A00000000000228B220000000000000000006A
:1017B000228B2200228B2200228B2200228B2200ED
:1017C000228B2200228B220000000000000000007B
:1017D0000000000000000000000000000000000009
:1017E00000000000000000000000000000000000F9
:1017F0000045FF000045FF000045FF000045FF00D9
:101800000045FF000045FF00000000000000000050
:1018100000000000000000000000000000000000C8
:1018200000000000000000000000000000000000B8
:1018300000000000000000000000000000000000A8
:101840000000000000000000000000000000000098
:10185000FF901E00FF901E00FF901E000000000081
:1018600000000000FF901E000000000000000000CB
:10187000FF901E000000000000000000FF901E000E
:1018800000000000FF901E000000000000000000AB
:10189000FF901E0000000000FF901E0000000000EE
:1018A00000000000FF901E0000000000000000008B
:1018B000FF901E00FF901E00FF901E00FF901E0074
:1018C00000000000FF901E0000000000000000006B
:1018D00000FFFF0000FFFF0000FFFF0000FFFF0010
:1018E00000FFFF0000FFFF000000000000000000FC
:1018F00000FFFF00000000000000000000FFFF00EC
:101900000000000000FFFF000000000000000000D9
:1019100000FFFF000000000000FFFF0000000000CB
:101920000000000000FFFF000000000000000000B9
:1019300000FFFF00000000000000000000FFFF00AB
:101940000000000000FFFF00000000000000000099
:10195000445522004455220044552200445522009B
:101960004455220044552200000000000000000001
:1019700000000000445522000000000000000000AC
:10198000445522000000000000000000000000009C
:10199000000000000000000044552200000000008C
:1019A000445522000000000000000000000000007C
:1019B00000000000445522004455220000000000B1
:1019C0000000000000000000000000000000000017
:1019D000994451000000000099445100994451007D
:1019E000994451009944510000000000000000009B
:1019F000994451000000000000000000994451008B
:101A000000000000994451000000000000000000A8
:101A1000994451000000000099445100000000006A
:101A20000000000099445100000000000000000088
:101A3000994451000000000000000000994451004A
:101A4000994451009944510000000000000000003A
:101A500099445100000000009944510099445100FC
:101A6000994451009944510000000000000000001A
:101A7000994451000000000000000000994451000A
:101A80000000000099445100000000000000000028
:101A900099445100000000009944510000000000EA
:101AA0000000000099445100000000000000000008
:101AB000994451009944510099445100994451006E
:101AC00099445100994451000000000000000000BA
:101AD000994451009944510099445100000000007C
:101AE00000000000000000000000000000000000F6
:101AF00000000000000000009944510000000000B8
:101B000000000000994451000000000000000000A7
:101B10009944510000000000000000000000000097
:101B20009944510099445100000000000000000059
:101B300000000000000000000000000000000000A5
:101B40000000000099445100000000000000000067
:101B500099445100994451009944510099445100CD
:101B60009944510099445100000000000000000019
:101B700099445100000000009944510099445100DB
:101B80000000000099445100000000000000000027
:101B900099445100000000009944510099445100BB
:101BA0000000000099445100000000000000000007
:101BB000994451009944510099445100994451006D
:101BC00099445100994451000000000000000000B9
:101BD000994451009944510099445100994451004D
:101BE0009944510099445100000000000000000099
:101BF0009944510000000000000000009944510089
:101C000000000000994451000000000000000000A6
:101C10009944510000000000994451000000000068
:101C20000000000099445100000000000000000086
:101C30009944510000000000000000009944510048
:101C40009944510099445100000000000000000038
:101C50000000000099445100000000000000000056
:101C60009944510000000000000000000000000046
:101C70000000000099445100000000000000000036
:101C80009944510000000000000000000000000026
:101C90000000000000000000000000000000000044
:101CA0000000000000000000000000000000000034
:101CB0000000000000000000000000000000000024
:101CC000000000000000000000000000EC1C000804
:101CD000000000202400000040160008101D00082D
:101CE0002400002004380000501600080000000006
:101CF00000000000000000000001010000000000E2
:101D000000000000000000000000000000000000D3
:04000005080000ED02
:00000001FF
